{
  "address": "0x9fE46736679d2D9a65F0992F2272dE9f3c7fa6e0",
  "abi": [
    {
      "anonymous": false,
      "inputs": [
        {
          "indexed": false,
          "internalType": "address",
          "name": "",
          "type": "address"
        }
      ],
      "name": "NewArtist",
      "type": "event"
    },
    {
      "inputs": [
        {
          "internalType": "uint256",
          "name": "",
          "type": "uint256"
        }
      ],
      "name": "Artists",
      "outputs": [
        {
          "internalType": "address",
          "name": "",
          "type": "address"
        }
      ],
      "stateMutability": "view",
      "type": "function"
    },
    {
      "inputs": [
        {
          "internalType": "address",
          "name": "",
          "type": "address"
        }
      ],
      "name": "artistByAddress",
      "outputs": [
        {
          "internalType": "string",
          "name": "",
          "type": "string"
        }
      ],
      "stateMutability": "view",
      "type": "function"
    },
    {
      "inputs": [
        {
          "internalType": "string",
          "name": "",
          "type": "string"
        }
      ],
      "name": "artistByName",
      "outputs": [
        {
          "internalType": "address",
          "name": "",
          "type": "address"
        }
      ],
      "stateMutability": "view",
      "type": "function"
    },
    {
      "inputs": [
        {
          "internalType": "address",
          "name": "",
          "type": "address"
        }
      ],
      "name": "artistProfileToArtist",
      "outputs": [
        {
          "internalType": "address",
          "name": "",
          "type": "address"
        }
      ],
      "stateMutability": "view",
      "type": "function"
    },
    {
      "inputs": [
        {
          "internalType": "string",
          "name": "_artistName",
          "type": "string"
        }
      ],
      "name": "createArtist",
      "outputs": [],
      "stateMutability": "nonpayable",
      "type": "function"
    },
    {
      "inputs": [
        {
          "internalType": "string",
          "name": "",
          "type": "string"
        }
      ],
      "name": "doesArtistExist",
      "outputs": [
        {
          "internalType": "bool",
          "name": "",
          "type": "bool"
        }
      ],
      "stateMutability": "view",
      "type": "function"
    }
  ],
  "transactionHash": "0x2a7e6281c9b38086f9a3bb7f37078b51b01141a43078049162e9ed9b563a84c0",
  "args": [],
  "numDeployments": 2,
  "solcInputHash": "8a5e8ebeda933e0b080600a70185b38d",
  "bytecode": "0x608060405234801561001057600080fd5b5061116e806100206000396000f3fe60806040523480156200001157600080fd5b50600436106200006a5760003560e01c80631cd8fb52146200006f5780631eab2b5c14620000b55780633be4c93914620000fb5780638162c17b14620001125780638b610e711462000138578063e08969031462000164575b600080fd5b620000a0620000803660046200045b565b805160208183018101805160038252928201919093012091525460ff1681565b60405190151581526020015b60405180910390f35b620000ec620000c63660046200045b565b80516020818301810180516000825292820191909301209152546001600160a01b031681565b604051620000ac919062000515565b620000ec6200010c36600462000529565b6200017d565b620001296200012336600462000543565b620001a8565b604051620000ac9190620005c9565b620000ec6200014936600462000543565b6002602052600090815260409020546001600160a01b031681565b6200017b620001753660046200045b565b6200024a565b005b600481815481106200018e57600080fd5b6000918252602090912001546001600160a01b0316905081565b60016020526000908152604090208054620001c390620005de565b80601f0160208091040260200160405190810160405280929190818152602001828054620001f190620005de565b8015620002425780601f10620002165761010080835404028352916020019162000242565b820191906000526020600020905b8154815290600101906020018083116200022457829003601f168201915b505050505081565b6003816040516200025c91906200061a565b9081526040519081900360200190205460ff1615620002b95760405162461bcd60e51b815260206004820152601560248201527441727469737420616c72656164792045786973747360581b604482015260640160405180910390fd5b60008133604051620002cb9062000437565b620002d892919062000638565b604051809103906000f080158015620002f5573d6000803e3d6000fd5b509050806000836040516200030b91906200061a565b908152604080516020928190038301902080546001600160a01b0319166001600160a01b039485161790559183166000908152600190915220620003508382620006b7565b506001600160a01b0381166000908152600260205260409081902080546001600160a01b03191633179055516001906003906200038f9085906200061a565b908152604051602091819003919091018120805460ff191692151592909217909155600480546001810182556000919091527f8a35acfbc15ff81a39ae7d344fd709f28e8600b4aa8c65c6b64bfe7fe36bd19b0180546001600160a01b0319166001600160a01b0384161790557f3212e9873f184ccc4882156550edbe928be236049c3c7c7778a990cbab3fe5c7906200042b90839062000515565b60405180910390a15050565b6109b5806200078483390190565b634e487b7160e01b600052604160045260246000fd5b6000602082840312156200046e57600080fd5b81356001600160401b03808211156200048657600080fd5b818401915084601f8301126200049b57600080fd5b813581811115620004b057620004b062000445565b604051601f8201601f19908116603f01168101908382118183101715620004db57620004db62000445565b81604052828152876020848701011115620004f557600080fd5b826020860160208301376000928101602001929092525095945050505050565b6001600160a01b0391909116815260200190565b6000602082840312156200053c57600080fd5b5035919050565b6000602082840312156200055657600080fd5b81356001600160a01b03811681146200056e57600080fd5b9392505050565b60005b838110156200059257818101518382015260200162000578565b50506000910152565b60008151808452620005b581602086016020860162000575565b601f01601f19169290920160200192915050565b6020815260006200056e60208301846200059b565b600181811c90821680620005f357607f821691505b6020821081036200061457634e487b7160e01b600052602260045260246000fd5b50919050565b600082516200062e81846020870162000575565b9190910192915050565b6040815260006200064d60408301856200059b565b905060018060a01b03831660208301529392505050565b601f821115620006b257600081815260208120601f850160051c810160208610156200068d5750805b601f850160051c820191505b81811015620006ae5782815560010162000699565b5050505b505050565b81516001600160401b03811115620006d357620006d362000445565b620006eb81620006e48454620005de565b8462000664565b602080601f8311600181146200072357600084156200070a5750858301515b600019600386901b1c1916600185901b178555620006ae565b600085815260208120601f198616915b82811015620007545788860151825594840194600190910190840162000733565b5085821015620007735787850151600019600388901b60f8161c191681555b5050505050600190811b0190555056fe60806040523480156200001157600080fd5b50604051620009b5380380620009b58339810160408190526200003491620000ba565b600462000042838262000231565b50600580546001600160a01b039092166001600160a01b03199283161790556002805490911673dc31ee1784292379fbb2964b3b9c4124d8f89c6017905550620002fd565b634e487b7160e01b600052604160045260246000fd5b80516001600160a01b0381168114620000b557600080fd5b919050565b60008060408385031215620000ce57600080fd5b82516001600160401b0380821115620000e657600080fd5b818501915085601f830112620000fb57600080fd5b81518181111562000110576200011062000087565b604051601f8201601f19908116603f011681019083821181831017156200013b576200013b62000087565b816040528281526020935088848487010111156200015857600080fd5b600091505b828210156200017c57848201840151818301850152908301906200015d565b6000848483010152809650505050620001978186016200009d565b925050509250929050565b600181811c90821680620001b757607f821691505b602082108103620001d857634e487b7160e01b600052602260045260246000fd5b50919050565b601f8211156200022c57600081815260208120601f850160051c81016020861015620002075750805b601f850160051c820191505b81811015620002285782815560010162000213565b5050505b505050565b81516001600160401b038111156200024d576200024d62000087565b62000265816200025e8454620001a2565b84620001de565b602080601f8311600181146200029d5760008415620002845750858301515b600019600386901b1c1916600185901b17855562000228565b600085815260208120601f198616915b82811015620002ce57888601518255948401946001909101908401620002ad565b5085821015620002ed5787850151600019600388901b60f8161c191681555b5050505050600190811b01905550565b6106a8806200030d6000396000f3fe6080604052600436106100645760003560e01c80631dab301e146100705780633ccfd60b1461011757806343bc16121461012e5780635b2f515b1461015b578063b69ef8a81461017d578063d5a7420d146101a0578063d85a3630146101c057600080fd5b3661006b57005b600080fd5b34801561007c57600080fd5b506100f761008b366004610478565b600660208190526000918252604090912080546001820154600283015460038401546004850154600586015496860154600787015460088801546009909801546001600160a01b0397881699969895909716969395929492939192909160ff808216916101009004168b565b60405161010e9b9a99989796959493929190610491565b60405180910390f35b34801561012357600080fd5b5061012c61023a565b005b34801561013a57600080fd5b5060055461014e906001600160a01b031681565b60405161010e919061051a565b34801561016757600080fd5b5061017061033e565b60405161010e919061052e565b34801561018957600080fd5b506101926103cc565b60405190815260200161010e565b3480156101ac57600080fd5b5061012c6101bb366004610478565b610443565b3480156101cc57600080fd5b5061012c6101db366004610598565b600354600090815260066020526040902080546001600160a01b039889166001600160a01b0319918216178255600182019690965560048101949094556005840192909255600883015560078201556002018054929093169116179055565b6005546001600160a01b0316331461025157600080fd5b6002546040516370a0823160e01b81526001600160a01b039091169063a9059cbb90339083906370a082319061028b90309060040161051a565b602060405180830381865afa1580156102a8573d6000803e3d6000fd5b505050506040513d601f19601f820116820180604052508101906102cc91906105f6565b6040516001600160e01b031960e085901b1681526001600160a01b03909216600483015260248201526044016020604051808303816000875af1158015610317573d6000803e3d6000fd5b505050506040513d601f19601f8201168201806040525081019061033b919061060f565b50565b6004805461034b90610638565b80601f016020809104026020016040519081016040528092919081815260200182805461037790610638565b80156103c45780601f10610399576101008083540402835291602001916103c4565b820191906000526020600020905b8154815290600101906020018083116103a757829003601f168201915b505050505081565b6002546040516370a0823160e01b81526000916001600160a01b0316906370a08231906103fd90309060040161051a565b602060405180830381865afa15801561041a573d6000803e3d6000fd5b505050506040513d601f19601f8201168201806040525081019061043e91906105f6565b905090565b6005546001600160a01b0316331461045a57600080fd5b6000908152600660205260409020600901805460ff19166001179055565b60006020828403121561048a57600080fd5b5035919050565b6001600160a01b038c81168252602082018c90528a166040820152606081018990526080810188905260a0810187905260c0810186905260e08101859052610100810184905282151561012082015261016081016004831061050357634e487b7160e01b600052602160045260246000fd5b826101408301529c9b505050505050505050505050565b6001600160a01b0391909116815260200190565b600060208083528351808285015260005b8181101561055b5785810183015185820160400152820161053f565b506000604082860101526040601f19601f8301168501019250505092915050565b80356001600160a01b038116811461059357600080fd5b919050565b600080600080600080600060e0888a0312156105b357600080fd5b6105bc8861057c565b96506105ca6020890161057c565b96999698505050506040850135946060810135946080820135945060a0820135935060c0909101359150565b60006020828403121561060857600080fd5b5051919050565b60006020828403121561062157600080fd5b8151801515811461063157600080fd5b9392505050565b600181811c9082168061064c57607f821691505b60208210810361066c57634e487b7160e01b600052602260045260246000fd5b5091905056fea2646970667358221220f5bd7f7b8c36fd3566e38240f9e96a7e6dd81cbbed368e35457c92099a19038d64736f6c63430008110033a2646970667358221220a52be59860fc3f985d2f59ef00f469d00c2476857fea1db908ad066d6bc0e08b64736f6c63430008110033",
  "devdoc": {
    "kind": "dev",
    "methods": {},
    "version": 1
  },
  "userdoc": {
    "kind": "user",
    "methods": {},
    "version": 1
  },
  "storageLayout": {
    "storage": [
      {
        "astId": 2349,
        "contract": "contracts/ArtistFactory.sol:ArtistFactory",
        "label": "artistByName",
        "offset": 0,
        "slot": "0",
        "type": "t_mapping(t_string_memory_ptr,t_address)"
      },
      {
        "astId": 2353,
        "contract": "contracts/ArtistFactory.sol:ArtistFactory",
        "label": "artistByAddress",
        "offset": 0,
        "slot": "1",
        "type": "t_mapping(t_address,t_string_storage)"
      },
      {
        "astId": 2357,
        "contract": "contracts/ArtistFactory.sol:ArtistFactory",
        "label": "artistProfileToArtist",
        "offset": 0,
        "slot": "2",
        "type": "t_mapping(t_address,t_address)"
      },
      {
        "astId": 2361,
        "contract": "contracts/ArtistFactory.sol:ArtistFactory",
        "label": "doesArtistExist",
        "offset": 0,
        "slot": "3",
        "type": "t_mapping(t_string_memory_ptr,t_bool)"
      },
      {
        "astId": 2364,
        "contract": "contracts/ArtistFactory.sol:ArtistFactory",
        "label": "Artists",
        "offset": 0,
        "slot": "4",
        "type": "t_array(t_address)dyn_storage"
      }
    ],
    "types": {
      "t_address": {
        "encoding": "inplace",
        "label": "address",
        "numberOfBytes": "20"
      },
      "t_array(t_address)dyn_storage": {
        "base": "t_address",
        "encoding": "dynamic_array",
        "label": "address[]",
        "numberOfBytes": "32"
      },
      "t_bool": {
        "encoding": "inplace",
        "label": "bool",
        "numberOfBytes": "1"
      },
      "t_mapping(t_address,t_address)": {
        "encoding": "mapping",
        "key": "t_address",
        "label": "mapping(address => address)",
        "numberOfBytes": "32",
        "value": "t_address"
      },
      "t_mapping(t_address,t_string_storage)": {
        "encoding": "mapping",
        "key": "t_address",
        "label": "mapping(address => string)",
        "numberOfBytes": "32",
        "value": "t_string_storage"
      },
      "t_mapping(t_string_memory_ptr,t_address)": {
        "encoding": "mapping",
        "key": "t_string_memory_ptr",
        "label": "mapping(string => address)",
        "numberOfBytes": "32",
        "value": "t_address"
      },
      "t_mapping(t_string_memory_ptr,t_bool)": {
        "encoding": "mapping",
        "key": "t_string_memory_ptr",
        "label": "mapping(string => bool)",
        "numberOfBytes": "32",
        "value": "t_bool"
      },
      "t_string_memory_ptr": {
        "encoding": "bytes",
        "label": "string",
        "numberOfBytes": "32"
      },
      "t_string_storage": {
        "encoding": "bytes",
        "label": "string",
        "numberOfBytes": "32"
      }
    }
  }
}