{
  "address": "0xe7f1725E7734CE288F8367e1Bb143E90bb3F0512",
  "abi": [
    {
      "inputs": [],
      "stateMutability": "nonpayable",
      "type": "constructor"
    },
    {
      "anonymous": false,
      "inputs": [
        {
          "indexed": false,
          "internalType": "bool",
          "name": "_depositPaid",
          "type": "bool"
        }
      ],
      "name": "BookingFeePaid",
      "type": "event"
    },
    {
      "anonymous": false,
      "inputs": [
        {
          "indexed": false,
          "internalType": "uint256",
          "name": "_payment",
          "type": "uint256"
        },
        {
          "indexed": false,
          "internalType": "uint256",
          "name": "_time",
          "type": "uint256"
        },
        {
          "indexed": false,
          "internalType": "string",
          "name": "_venueName",
          "type": "string"
        }
      ],
      "name": "BookingMade",
      "type": "event"
    },
    {
      "inputs": [
        {
          "internalType": "address payable",
          "name": "_artist",
          "type": "address"
        },
        {
          "internalType": "bytes32",
          "name": "_artistName",
          "type": "bytes32"
        },
        {
          "internalType": "uint256",
          "name": "_payment",
          "type": "uint256"
        },
        {
          "internalType": "uint256",
          "name": "_time",
          "type": "uint256"
        },
        {
          "internalType": "bytes32",
          "name": "_date",
          "type": "bytes32"
        },
        {
          "internalType": "bytes32",
          "name": "_venueName",
          "type": "bytes32"
        }
      ],
      "name": "createBooking",
      "outputs": [],
      "stateMutability": "nonpayable",
      "type": "function"
    },
    {
      "inputs": [],
      "name": "proofOfBooking",
      "outputs": [
        {
          "internalType": "contract ProofOfBooking",
          "name": "",
          "type": "address"
        }
      ],
      "stateMutability": "view",
      "type": "function"
    },
    {
      "inputs": [],
      "name": "proofOfPayment",
      "outputs": [
        {
          "internalType": "contract ProofOfPayment",
          "name": "",
          "type": "address"
        }
      ],
      "stateMutability": "view",
      "type": "function"
    }
  ],
  "transactionHash": "0x2213f5a700c549956cc5d89400e7274d2b2e6cea0250041e3a41059c00d8e14a",
  "args": [],
  "numDeployments": 1,
  "solcInputHash": "9868b9ac5d06252a6cff16bca0457f05",
  "bytecode": "0x608060405234801561001057600080fd5b5060405161001d9061012e565b6040808252600d908201526c2137b7b5b4b733902a37b5b2b760991b606082015260806020820181905260079082015266424f4f4b494e4760c81b60a082015260c001604051809103906000f08015801561007c573d6000803e3d6000fd5b50600080546001600160a01b0319166001600160a01b03929092169190911790556040516100a99061013b565b6040808252600d908201526c2830bcb6b2b73a102a37b5b2b760991b6060820152608060208201819052600790820152661410565351539560ca1b60a082015260c001604051809103906000f080158015610108573d6000803e3d6000fd5b50600180546001600160a01b0319166001600160a01b0392909216919091179055610148565b611b588061030f83390190565b611b5880611e6783390190565b6101b8806101576000396000f3fe608060405234801561001057600080fd5b50600436106100415760003560e01c8063382a3593146100465780636711e62f146100755780637448be2314610088575b600080fd5b600054610059906001600160a01b031681565b6040516001600160a01b03909116815260200160405180910390f35b600154610059906001600160a01b031681565b61009b61009636600461012a565b61009d565b005b604051630d85a36360e41b81526001600160a01b0387166004820181905233602483015260448201879052606482018690526084820185905260a4820184905260c48201839052879163d85a36309060e401600060405180830381600087803b15801561010957600080fd5b505af115801561011d573d6000803e3d6000fd5b5050505050505050505050565b60008060008060008060c0878903121561014357600080fd5b86356001600160a01b038116811461015a57600080fd5b9860208801359850604088013597606081013597506080810135965060a0013594509250505056fea26469706673582212204492753366bc53dd989debdeb7b87ae1ea7f9347bdcdb0bc182e4c899e5e891d64736f6c6343000811003360806040523480156200001157600080fd5b5060405162001b5838038062001b58833981016040819052620000349162000136565b818160006200004483826200022f565b5060016200005382826200022f565b5050600680546001600160a01b0319163317905550620002fb915050565b634e487b7160e01b600052604160045260246000fd5b600082601f8301126200009957600080fd5b81516001600160401b0380821115620000b657620000b662000071565b604051601f8301601f19908116603f01168101908282118183101715620000e157620000e162000071565b81604052838152602092508683858801011115620000fe57600080fd5b600091505b8382101562000122578582018301518183018401529082019062000103565b600093810190920192909252949350505050565b600080604083850312156200014a57600080fd5b82516001600160401b03808211156200016257600080fd5b620001708683870162000087565b935060208501519150808211156200018757600080fd5b50620001968582860162000087565b9150509250929050565b600181811c90821680620001b557607f821691505b602082108103620001d657634e487b7160e01b600052602260045260246000fd5b50919050565b601f8211156200022a57600081815260208120601f850160051c81016020861015620002055750805b601f850160051c820191505b81811015620002265782815560010162000211565b5050505b505050565b81516001600160401b038111156200024b576200024b62000071565b62000263816200025c8454620001a0565b84620001dc565b602080601f8311600181146200029b5760008415620002825750858301515b600019600386901b1c1916600185901b17855562000226565b600085815260208120601f198616915b82811015620002cc57888601518255948401946001909101908401620002ab565b5085821015620002eb5787850151600019600388901b60f8161c191681555b5050505050600190811b01905550565b61184d806200030b6000396000f3fe608060405234801561001057600080fd5b50600436106100c55760003560e01c806301ffc9a7146100ca57806306fdde03146100f2578063081812fc14610107578063095ea7b31461013257806323b872dd1461014757806342842e0e1461015a5780635ebfebce1461016d5780636352211e1461018057806370a082311461019357806395d89b41146101b4578063a22cb465146101bc578063b05420a3146101cf578063b88d4fde146101e2578063c87b56dd146101f5578063e985e9c514610208575b600080fd5b6100dd6100d8366004610fab565b61021b565b60405190151581526020015b60405180910390f35b6100fa61026d565b6040516100e99190611018565b61011a61011536600461102b565b6102ff565b6040516001600160a01b0390911681526020016100e9565b610145610140366004611060565b610326565b005b61014561015536600461108a565b610440565b61014561016836600461108a565b610471565b6100fa61017b36600461102b565b61048c565b61011a61018e36600461102b565b610526565b6101a66101a13660046110c6565b61055b565b6040519081526020016100e9565b6100fa6105e1565b6101456101ca3660046110e1565b6105f0565b6101456101dd3660046111c8565b6105ff565b6101456101f036600461128d565b610653565b6100fa61020336600461102b565b61068b565b6100dd610216366004611308565b6106ff565b60006001600160e01b031982166380ac58cd60e01b148061024c57506001600160e01b03198216635b5e139f60e01b145b8061026757506301ffc9a760e01b6001600160e01b03198316145b92915050565b60606000805461027c9061133b565b80601f01602080910402602001604051908101604052809291908181526020018280546102a89061133b565b80156102f55780601f106102ca576101008083540402835291602001916102f5565b820191906000526020600020905b8154815290600101906020018083116102d857829003601f168201915b5050505050905090565b600061030a8261072d565b506000908152600460205260409020546001600160a01b031690565b600061033182610526565b9050806001600160a01b0316836001600160a01b0316036103a35760405162461bcd60e51b815260206004820152602160248201527f4552433732313a20617070726f76616c20746f2063757272656e74206f776e656044820152603960f91b60648201526084015b60405180910390fd5b336001600160a01b03821614806103bf57506103bf81336106ff565b6104315760405162461bcd60e51b815260206004820152603e60248201527f4552433732313a20617070726f76652063616c6c6572206973206e6f7420746f60448201527f6b656e206f776e6572206e6f7220617070726f76656420666f7220616c6c0000606482015260840161039a565b61043b8383610755565b505050565b61044a33826107c3565b6104665760405162461bcd60e51b815260040161039a90611375565b61043b838383610822565b61043b83838360405180602001604052806000815250610653565b600760205260009081526040902080546104a59061133b565b80601f01602080910402602001604051908101604052809291908181526020018280546104d19061133b565b801561051e5780601f106104f35761010080835404028352916020019161051e565b820191906000526020600020905b81548152906001019060200180831161050157829003601f168201915b505050505081565b6000818152600260205260408120546001600160a01b0316806102675760405162461bcd60e51b815260040161039a906113c3565b60006001600160a01b0382166105c55760405162461bcd60e51b815260206004820152602960248201527f4552433732313a2061646472657373207a65726f206973206e6f7420612076616044820152683634b21037bbb732b960b91b606482015260840161039a565b506001600160a01b031660009081526003602052604090205490565b60606001805461027c9061133b565b6105fb3383836109ac565b5050565b6006546001600160a01b0316331461061657600080fd5b6106208686610a76565b600061062e85858585610b96565b60008781526007602052604090209091506106498282611443565b5050505050505050565b61065d33836107c3565b6106795760405162461bcd60e51b815260040161039a90611375565b61068584848484610bf5565b50505050565b60606106968261072d565b60006106ad60408051602081019091526000815290565b905060008151116106cd57604051806020016040528060008152506106f8565b806106d784610c28565b6040516020016106e8929190611502565b6040516020818303038152906040525b9392505050565b6001600160a01b03918216600090815260056020908152604080832093909416825291909152205460ff1690565b61073681610d28565b6107525760405162461bcd60e51b815260040161039a906113c3565b50565b600081815260046020526040902080546001600160a01b0319166001600160a01b038416908117909155819061078a82610526565b6001600160a01b03167f8c5be1e5ebec7d5bd14f71427d1e84f3dd0314c0f7b2291e5b200ac8c7c3b92560405160405180910390a45050565b6000806107cf83610526565b9050806001600160a01b0316846001600160a01b031614806107f657506107f681856106ff565b8061081a5750836001600160a01b031661080f846102ff565b6001600160a01b0316145b949350505050565b826001600160a01b031661083582610526565b6001600160a01b0316146108995760405162461bcd60e51b815260206004820152602560248201527f4552433732313a207472616e736665722066726f6d20696e636f72726563742060448201526437bbb732b960d91b606482015260840161039a565b6001600160a01b0382166108fb5760405162461bcd60e51b8152602060048201526024808201527f4552433732313a207472616e7366657220746f20746865207a65726f206164646044820152637265737360e01b606482015260840161039a565b610906600082610755565b6001600160a01b038316600090815260036020526040812080546001929061092f908490611547565b90915550506001600160a01b038216600090815260036020526040812080546001929061095d90849061155a565b909155505060008181526002602052604080822080546001600160a01b0319166001600160a01b0386811691821790925591518493918716916000805160206117f883398151915291a4505050565b816001600160a01b0316836001600160a01b031603610a095760405162461bcd60e51b815260206004820152601960248201527822a9219b99189d1030b8383937bb32903a379031b0b63632b960391b604482015260640161039a565b6001600160a01b03838116600081815260056020908152604080832094871680845294825291829020805460ff191686151590811790915591519182527f17307eab39ab6107e8899845ad3d59bd9653f200f220920489ca2b5937696c31910160405180910390a3505050565b6001600160a01b038216610acc5760405162461bcd60e51b815260206004820181905260248201527f4552433732313a206d696e7420746f20746865207a65726f2061646472657373604482015260640161039a565b610ad581610d28565b15610b215760405162461bcd60e51b815260206004820152601c60248201527b115490cdcc8c4e881d1bdad95b88185b1c9958591e481b5a5b9d195960221b604482015260640161039a565b6001600160a01b0382166000908152600360205260408120805460019290610b4a90849061155a565b909155505060008181526002602052604080822080546001600160a01b0319166001600160a01b03861690811790915590518392906000805160206117f8833981519152908290a45050565b6060600085858585604051602001610bb1949392919061156d565b6040516020818303038152906040529050610bcb81610d45565b604051602001610bdb9190611642565b604051602081830303815290604052915050949350505050565b610c00848484610822565b610c0c84848484610e97565b6106855760405162461bcd60e51b815260040161039a90611687565b606081600003610c4f5750506040805180820190915260018152600360fc1b602082015290565b8160005b8115610c795780610c63816116d9565b9150610c729050600a83611708565b9150610c53565b6000816001600160401b03811115610c9357610c9361111d565b6040519080825280601f01601f191660200182016040528015610cbd576020820181803683370190505b5090505b841561081a57610cd2600183611547565b9150610cdf600a8661171c565b610cea90603061155a565b60f81b818381518110610cff57610cff611730565b60200101906001600160f81b031916908160001a905350610d21600a86611708565b9450610cc1565b6000908152600260205260409020546001600160a01b0316151590565b60608151600003610d6457505060408051602081019091526000815290565b60006040518060600160405280604081526020016117b86040913990506000600384516002610d93919061155a565b610d9d9190611708565b610da8906004611746565b6001600160401b03811115610dbf57610dbf61111d565b6040519080825280601f01601f191660200182016040528015610de9576020820181803683370190505b509050600182016020820185865187015b80821015610e55576003820191508151603f8160121c168501518453600184019350603f81600c1c168501518453600184019350603f8160061c168501518453600184019350603f8116850151845350600183019250610dfa565b5050600386510660018114610e715760028114610e8457610e8c565b603d6001830353603d6002830353610e8c565b603d60018303535b509195945050505050565b60006001600160a01b0384163b15610f8d57604051630a85bd0160e11b81526001600160a01b0385169063150b7a0290610edb90339089908890889060040161175d565b6020604051808303816000875af1925050508015610f16575060408051601f3d908101601f19168201909252610f139181019061179a565b60015b610f73573d808015610f44576040519150601f19603f3d011682016040523d82523d6000602084013e610f49565b606091505b508051600003610f6b5760405162461bcd60e51b815260040161039a90611687565b805181602001fd5b6001600160e01b031916630a85bd0160e11b14905061081a565b50600161081a565b6001600160e01b03198116811461075257600080fd5b600060208284031215610fbd57600080fd5b81356106f881610f95565b60005b83811015610fe3578181015183820152602001610fcb565b50506000910152565b60008151808452611004816020860160208601610fc8565b601f01601f19169290920160200192915050565b6020815260006106f86020830184610fec565b60006020828403121561103d57600080fd5b5035919050565b80356001600160a01b038116811461105b57600080fd5b919050565b6000806040838503121561107357600080fd5b61107c83611044565b946020939093013593505050565b60008060006060848603121561109f57600080fd5b6110a884611044565b92506110b660208501611044565b9150604084013590509250925092565b6000602082840312156110d857600080fd5b6106f882611044565b600080604083850312156110f457600080fd5b6110fd83611044565b91506020830135801515811461111257600080fd5b809150509250929050565b634e487b7160e01b600052604160045260246000fd5b60006001600160401b038084111561114d5761114d61111d565b604051601f8501601f19908116603f011681019082821181831017156111755761117561111d565b8160405280935085815286868601111561118e57600080fd5b858560208301376000602087830101525050509392505050565b600082601f8301126111b957600080fd5b6106f883833560208501611133565b60008060008060008060c087890312156111e157600080fd5b6111ea87611044565b95506020870135945060408701356001600160401b038082111561120d57600080fd5b6112198a838b016111a8565b9550606089013591508082111561122f57600080fd5b61123b8a838b016111a8565b9450608089013591508082111561125157600080fd5b61125d8a838b016111a8565b935060a089013591508082111561127357600080fd5b5061128089828a016111a8565b9150509295509295509295565b600080600080608085870312156112a357600080fd5b6112ac85611044565b93506112ba60208601611044565b92506040850135915060608501356001600160401b038111156112dc57600080fd5b8501601f810187136112ed57600080fd5b6112fc87823560208401611133565b91505092959194509250565b6000806040838503121561131b57600080fd5b61132483611044565b915061133260208401611044565b90509250929050565b600181811c9082168061134f57607f821691505b60208210810361136f57634e487b7160e01b600052602260045260246000fd5b50919050565b6020808252602e908201527f4552433732313a2063616c6c6572206973206e6f7420746f6b656e206f776e6560408201526d1c881b9bdc88185c1c1c9bdd995960921b606082015260800190565b602080825260189082015277115490cdcc8c4e881a5b9d985b1a59081d1bdad95b88125160421b604082015260600190565b601f82111561043b57600081815260208120601f850160051c8101602086101561141c5750805b601f850160051c820191505b8181101561143b57828155600101611428565b505050505050565b81516001600160401b0381111561145c5761145c61111d565b6114708161146a845461133b565b846113f5565b602080601f8311600181146114a5576000841561148d5750858301515b600019600386901b1c1916600185901b17855561143b565b600085815260208120601f198616915b828110156114d4578886015182559484019460019091019084016114b5565b50858210156114f25787850151600019600388901b60f8161c191681555b5050505050600190811b01905550565b60008351611514818460208801610fc8565b835190830190611528818360208801610fc8565b01949350505050565b634e487b7160e01b600052601160045260246000fd5b8181038181111561026757610267611531565b8082018082111561026757610267611531565b607b60f81b81526503730b6b29d160d51b600182015260008551611598816007850160208a01610fc8565b6a016103830bcb6b2b73a1d160ad1b600791840191820152600960fa1b601282015285516115cd816013840160208a01610fc8565b67016103230ba329d160c51b6013929091019182015284516115f681601b840160208901610fc8565b68016103b32b73ab29d160bd1b601b92909101918201528351611620816024840160208801610fc8565b611636602482840101607d60f81b815260010190565b98975050505050505050565b7f646174613a6170706c69636174696f6e2f6a736f6e3b6261736536342c00000081526000825161167a81601d850160208701610fc8565b91909101601d0192915050565b60208082526032908201527f4552433732313a207472616e7366657220746f206e6f6e20455243373231526560408201527131b2b4bb32b91034b6b83632b6b2b73a32b960711b606082015260800190565b6000600182016116eb576116eb611531565b5060010190565b634e487b7160e01b600052601260045260246000fd5b600082611717576117176116f2565b500490565b60008261172b5761172b6116f2565b500690565b634e487b7160e01b600052603260045260246000fd5b808202811582820484141761026757610267611531565b6001600160a01b038581168252841660208201526040810183905260806060820181905260009061179090830184610fec565b9695505050505050565b6000602082840312156117ac57600080fd5b81516106f881610f9556fe4142434445464748494a4b4c4d4e4f505152535455565758595a6162636465666768696a6b6c6d6e6f707172737475767778797a303132333435363738392b2fddf252ad1be2c89b69c2b068fc378daa952ba7f163c4a11628f55a4df523b3efa264697066735822122058d9448d8dc2ac7ee0d64cc816da392e7c88ba7a03f836a001c64133c0a447f264736f6c6343000811003360806040523480156200001157600080fd5b5060405162001b5838038062001b58833981016040819052620000349162000136565b818160006200004483826200022f565b5060016200005382826200022f565b5050600680546001600160a01b0319163317905550620002fb915050565b634e487b7160e01b600052604160045260246000fd5b600082601f8301126200009957600080fd5b81516001600160401b0380821115620000b657620000b662000071565b604051601f8301601f19908116603f01168101908282118183101715620000e157620000e162000071565b81604052838152602092508683858801011115620000fe57600080fd5b600091505b8382101562000122578582018301518183018401529082019062000103565b600093810190920192909252949350505050565b600080604083850312156200014a57600080fd5b82516001600160401b03808211156200016257600080fd5b620001708683870162000087565b935060208501519150808211156200018757600080fd5b50620001968582860162000087565b9150509250929050565b600181811c90821680620001b557607f821691505b602082108103620001d657634e487b7160e01b600052602260045260246000fd5b50919050565b601f8211156200022a57600081815260208120601f850160051c81016020861015620002055750805b601f850160051c820191505b81811015620002265782815560010162000211565b5050505b505050565b81516001600160401b038111156200024b576200024b62000071565b62000263816200025c8454620001a0565b84620001dc565b602080601f8311600181146200029b5760008415620002825750858301515b600019600386901b1c1916600185901b17855562000226565b600085815260208120601f198616915b82811015620002cc57888601518255948401946001909101908401620002ab565b5085821015620002eb5787850151600019600388901b60f8161c191681555b5050505050600190811b01905550565b61184d806200030b6000396000f3fe608060405234801561001057600080fd5b50600436106100c55760003560e01c806301ffc9a7146100ca57806306fdde03146100f2578063081812fc14610107578063095ea7b314610132578063219454b71461014757806323b872dd1461015a57806342842e0e1461016d5780635ebfebce146101805780636352211e1461019357806370a08231146101a657806395d89b41146101c7578063a22cb465146101cf578063b88d4fde146101e2578063c87b56dd146101f5578063e985e9c514610208575b600080fd5b6100dd6100d8366004610fab565b61021b565b60405190151581526020015b60405180910390f35b6100fa61026d565b6040516100e99190611018565b61011a61011536600461102b565b6102ff565b6040516001600160a01b0390911681526020016100e9565b610145610140366004611060565b610326565b005b610145610155366004611135565b610440565b6101456101683660046111fa565b610494565b61014561017b3660046111fa565b6104c5565b6100fa61018e36600461102b565b6104e0565b61011a6101a136600461102b565b61057a565b6101b96101b4366004611236565b6105af565b6040519081526020016100e9565b6100fa610635565b6101456101dd366004611251565b610644565b6101456101f036600461128d565b610653565b6100fa61020336600461102b565b61068b565b6100dd610216366004611308565b6106ff565b60006001600160e01b031982166380ac58cd60e01b148061024c57506001600160e01b03198216635b5e139f60e01b145b8061026757506301ffc9a760e01b6001600160e01b03198316145b92915050565b60606000805461027c9061133b565b80601f01602080910402602001604051908101604052809291908181526020018280546102a89061133b565b80156102f55780601f106102ca576101008083540402835291602001916102f5565b820191906000526020600020905b8154815290600101906020018083116102d857829003601f168201915b5050505050905090565b600061030a8261072d565b506000908152600460205260409020546001600160a01b031690565b60006103318261057a565b9050806001600160a01b0316836001600160a01b0316036103a35760405162461bcd60e51b815260206004820152602160248201527f4552433732313a20617070726f76616c20746f2063757272656e74206f776e656044820152603960f91b60648201526084015b60405180910390fd5b336001600160a01b03821614806103bf57506103bf81336106ff565b6104315760405162461bcd60e51b815260206004820152603e60248201527f4552433732313a20617070726f76652063616c6c6572206973206e6f7420746f60448201527f6b656e206f776e6572206e6f7220617070726f76656420666f7220616c6c0000606482015260840161039a565b61043b8383610755565b505050565b6006546001600160a01b0316331461045757600080fd5b61046186866107c3565b600061046f858585856108e3565b600087815260076020526040902090915061048a82826113c3565b5050505050505050565b61049e3382610943565b6104ba5760405162461bcd60e51b815260040161039a90611482565b61043b8383836109a1565b61043b83838360405180602001604052806000815250610653565b600760205260009081526040902080546104f99061133b565b80601f01602080910402602001604051908101604052809291908181526020018280546105259061133b565b80156105725780601f1061054757610100808354040283529160200191610572565b820191906000526020600020905b81548152906001019060200180831161055557829003601f168201915b505050505081565b6000818152600260205260408120546001600160a01b0316806102675760405162461bcd60e51b815260040161039a906114d0565b60006001600160a01b0382166106195760405162461bcd60e51b815260206004820152602960248201527f4552433732313a2061646472657373207a65726f206973206e6f7420612076616044820152683634b21037bbb732b960b91b606482015260840161039a565b506001600160a01b031660009081526003602052604090205490565b60606001805461027c9061133b565b61064f338383610b2b565b5050565b61065d3383610943565b6106795760405162461bcd60e51b815260040161039a90611482565b61068584848484610bf5565b50505050565b60606106968261072d565b60006106ad60408051602081019091526000815290565b905060008151116106cd57604051806020016040528060008152506106f8565b806106d784610c28565b6040516020016106e8929190611502565b6040516020818303038152906040525b9392505050565b6001600160a01b03918216600090815260056020908152604080832093909416825291909152205460ff1690565b61073681610d28565b6107525760405162461bcd60e51b815260040161039a906114d0565b50565b600081815260046020526040902080546001600160a01b0319166001600160a01b038416908117909155819061078a8261057a565b6001600160a01b03167f8c5be1e5ebec7d5bd14f71427d1e84f3dd0314c0f7b2291e5b200ac8c7c3b92560405160405180910390a45050565b6001600160a01b0382166108195760405162461bcd60e51b815260206004820181905260248201527f4552433732313a206d696e7420746f20746865207a65726f2061646472657373604482015260640161039a565b61082281610d28565b1561086e5760405162461bcd60e51b815260206004820152601c60248201527b115490cdcc8c4e881d1bdad95b88185b1c9958591e481b5a5b9d195960221b604482015260640161039a565b6001600160a01b0382166000908152600360205260408120805460019290610897908490611547565b909155505060008181526002602052604080822080546001600160a01b0319166001600160a01b03861690811790915590518392906000805160206117f8833981519152908290a45050565b60606000858585856040516020016108fe949392919061155a565b604051602081830303815290604052905061091881610d45565b604051602001610928919061162f565b6040516020818303038152906040529150505b949350505050565b60008061094f8361057a565b9050806001600160a01b0316846001600160a01b03161480610976575061097681856106ff565b8061093b5750836001600160a01b031661098f846102ff565b6001600160a01b031614949350505050565b826001600160a01b03166109b48261057a565b6001600160a01b031614610a185760405162461bcd60e51b815260206004820152602560248201527f4552433732313a207472616e736665722066726f6d20696e636f72726563742060448201526437bbb732b960d91b606482015260840161039a565b6001600160a01b038216610a7a5760405162461bcd60e51b8152602060048201526024808201527f4552433732313a207472616e7366657220746f20746865207a65726f206164646044820152637265737360e01b606482015260840161039a565b610a85600082610755565b6001600160a01b0383166000908152600360205260408120805460019290610aae908490611674565b90915550506001600160a01b0382166000908152600360205260408120805460019290610adc908490611547565b909155505060008181526002602052604080822080546001600160a01b0319166001600160a01b0386811691821790925591518493918716916000805160206117f883398151915291a4505050565b816001600160a01b0316836001600160a01b031603610b885760405162461bcd60e51b815260206004820152601960248201527822a9219b99189d1030b8383937bb32903a379031b0b63632b960391b604482015260640161039a565b6001600160a01b03838116600081815260056020908152604080832094871680845294825291829020805460ff191686151590811790915591519182527f17307eab39ab6107e8899845ad3d59bd9653f200f220920489ca2b5937696c31910160405180910390a3505050565b610c008484846109a1565b610c0c84848484610e97565b6106855760405162461bcd60e51b815260040161039a90611687565b606081600003610c4f5750506040805180820190915260018152600360fc1b602082015290565b8160005b8115610c795780610c63816116d9565b9150610c729050600a83611708565b9150610c53565b6000816001600160401b03811115610c9357610c9361108a565b6040519080825280601f01601f191660200182016040528015610cbd576020820181803683370190505b5090505b841561093b57610cd2600183611674565b9150610cdf600a8661171c565b610cea906030611547565b60f81b818381518110610cff57610cff611730565b60200101906001600160f81b031916908160001a905350610d21600a86611708565b9450610cc1565b6000908152600260205260409020546001600160a01b0316151590565b60608151600003610d6457505060408051602081019091526000815290565b60006040518060600160405280604081526020016117b86040913990506000600384516002610d939190611547565b610d9d9190611708565b610da8906004611746565b6001600160401b03811115610dbf57610dbf61108a565b6040519080825280601f01601f191660200182016040528015610de9576020820181803683370190505b509050600182016020820185865187015b80821015610e55576003820191508151603f8160121c168501518453600184019350603f81600c1c168501518453600184019350603f8160061c168501518453600184019350603f8116850151845350600183019250610dfa565b5050600386510660018114610e715760028114610e8457610e8c565b603d6001830353603d6002830353610e8c565b603d60018303535b509195945050505050565b60006001600160a01b0384163b15610f8d57604051630a85bd0160e11b81526001600160a01b0385169063150b7a0290610edb90339089908890889060040161175d565b6020604051808303816000875af1925050508015610f16575060408051601f3d908101601f19168201909252610f139181019061179a565b60015b610f73573d808015610f44576040519150601f19603f3d011682016040523d82523d6000602084013e610f49565b606091505b508051600003610f6b5760405162461bcd60e51b815260040161039a90611687565b805181602001fd5b6001600160e01b031916630a85bd0160e11b14905061093b565b50600161093b565b6001600160e01b03198116811461075257600080fd5b600060208284031215610fbd57600080fd5b81356106f881610f95565b60005b83811015610fe3578181015183820152602001610fcb565b50506000910152565b60008151808452611004816020860160208601610fc8565b601f01601f19169290920160200192915050565b6020815260006106f86020830184610fec565b60006020828403121561103d57600080fd5b5035919050565b80356001600160a01b038116811461105b57600080fd5b919050565b6000806040838503121561107357600080fd5b61107c83611044565b946020939093013593505050565b634e487b7160e01b600052604160045260246000fd5b60006001600160401b03808411156110ba576110ba61108a565b604051601f8501601f19908116603f011681019082821181831017156110e2576110e261108a565b816040528093508581528686860111156110fb57600080fd5b858560208301376000602087830101525050509392505050565b600082601f83011261112657600080fd5b6106f8838335602085016110a0565b60008060008060008060c0878903121561114e57600080fd5b61115787611044565b95506020870135945060408701356001600160401b038082111561117a57600080fd5b6111868a838b01611115565b9550606089013591508082111561119c57600080fd5b6111a88a838b01611115565b945060808901359150808211156111be57600080fd5b6111ca8a838b01611115565b935060a08901359150808211156111e057600080fd5b506111ed89828a01611115565b9150509295509295509295565b60008060006060848603121561120f57600080fd5b61121884611044565b925061122660208501611044565b9150604084013590509250925092565b60006020828403121561124857600080fd5b6106f882611044565b6000806040838503121561126457600080fd5b61126d83611044565b91506020830135801515811461128257600080fd5b809150509250929050565b600080600080608085870312156112a357600080fd5b6112ac85611044565b93506112ba60208601611044565b92506040850135915060608501356001600160401b038111156112dc57600080fd5b8501601f810187136112ed57600080fd5b6112fc878235602084016110a0565b91505092959194509250565b6000806040838503121561131b57600080fd5b61132483611044565b915061133260208401611044565b90509250929050565b600181811c9082168061134f57607f821691505b60208210810361136f57634e487b7160e01b600052602260045260246000fd5b50919050565b601f82111561043b57600081815260208120601f850160051c8101602086101561139c5750805b601f850160051c820191505b818110156113bb578281556001016113a8565b505050505050565b81516001600160401b038111156113dc576113dc61108a565b6113f0816113ea845461133b565b84611375565b602080601f831160018114611425576000841561140d5750858301515b600019600386901b1c1916600185901b1785556113bb565b600085815260208120601f198616915b8281101561145457888601518255948401946001909101908401611435565b50858210156114725787850151600019600388901b60f8161c191681555b5050505050600190811b01905550565b6020808252602e908201527f4552433732313a2063616c6c6572206973206e6f7420746f6b656e206f776e6560408201526d1c881b9bdc88185c1c1c9bdd995960921b606082015260800190565b602080825260189082015277115490cdcc8c4e881a5b9d985b1a59081d1bdad95b88125160421b604082015260600190565b60008351611514818460208801610fc8565b835190830190611528818360208801610fc8565b01949350505050565b634e487b7160e01b600052601160045260246000fd5b8082018082111561026757610267611531565b607b60f81b81526503730b6b29d160d51b600182015260008551611585816007850160208a01610fc8565b6a016103830bcb6b2b73a1d160ad1b600791840191820152600960fa1b601282015285516115ba816013840160208a01610fc8565b67016103230ba329d160c51b6013929091019182015284516115e381601b840160208901610fc8565b68016103b32b73ab29d160bd1b601b9290910191820152835161160d816024840160208801610fc8565b611623602482840101607d60f81b815260010190565b98975050505050505050565b7f646174613a6170706c69636174696f6e2f6a736f6e3b6261736536342c00000081526000825161166781601d850160208701610fc8565b91909101601d0192915050565b8181038181111561026757610267611531565b60208082526032908201527f4552433732313a207472616e7366657220746f206e6f6e20455243373231526560408201527131b2b4bb32b91034b6b83632b6b2b73a32b960711b606082015260800190565b6000600182016116eb576116eb611531565b5060010190565b634e487b7160e01b600052601260045260246000fd5b600082611717576117176116f2565b500490565b60008261172b5761172b6116f2565b500690565b634e487b7160e01b600052603260045260246000fd5b808202811582820484141761026757610267611531565b6001600160a01b038581168252841660208201526040810183905260806060820181905260009061179090830184610fec565b9695505050505050565b6000602082840312156117ac57600080fd5b81516106f881610f9556fe4142434445464748494a4b4c4d4e4f505152535455565758595a6162636465666768696a6b6c6d6e6f707172737475767778797a303132333435363738392b2fddf252ad1be2c89b69c2b068fc378daa952ba7f163c4a11628f55a4df523b3efa2646970667358221220ff96ee7ba13bd2271f75853b369cf52d4e71671fef004a2bc519ccb4c718c74064736f6c63430008110033",
  "devdoc": {
    "kind": "dev",
    "methods": {},
    "version": 1
  },
  "userdoc": {
    "kind": "user",
    "methods": {
      "proofOfBooking()": {
        "notice": "Types"
      }
    },
    "version": 1
  },
  "storageLayout": {
    "storage": [
      {
        "astId": 2755,
        "contract": "contracts/PerformanceContract.sol:PerformanceContract",
        "label": "proofOfBooking",
        "offset": 0,
        "slot": "0",
        "type": "t_contract(ProofOfBooking)2946"
      },
      {
        "astId": 2758,
        "contract": "contracts/PerformanceContract.sol:PerformanceContract",
        "label": "proofOfPayment",
        "offset": 0,
        "slot": "1",
        "type": "t_contract(ProofOfPayment)3062"
      }
    ],
    "types": {
      "t_contract(ProofOfBooking)2946": {
        "encoding": "inplace",
        "label": "contract ProofOfBooking",
        "numberOfBytes": "20"
      },
      "t_contract(ProofOfPayment)3062": {
        "encoding": "inplace",
        "label": "contract ProofOfPayment",
        "numberOfBytes": "20"
      }
    }
  }
}