{
    "_format": "hh-sol-artifact-1",
    "contractName": "ArtistFactory",
    "sourceName": "contracts/ArtistFactory.sol",
    "abi": [
        {
            "inputs": [
                {
                    "internalType": "address",
                    "name": "",
                    "type": "address"
                }
            ],
            "name": "ArtistbyAddress",
            "outputs": [
                {
                    "internalType": "string",
                    "name": "",
                    "type": "string"
                }
            ],
            "stateMutability": "view",
            "type": "function"
        },
        {
            "inputs": [
                {
                    "internalType": "string",
                    "name": "",
                    "type": "string"
                }
            ],
            "name": "ArtistbyName",
            "outputs": [
                {
                    "internalType": "address",
                    "name": "",
                    "type": "address"
                }
            ],
            "stateMutability": "view",
            "type": "function"
        },
        {
            "inputs": [
                {
                    "internalType": "string",
                    "name": "_artistName",
                    "type": "string"
                }
            ],
            "name": "createArtist",
            "outputs": [],
            "stateMutability": "nonpayable",
            "type": "function"
        },
        {
            "inputs": [
                {
                    "internalType": "string",
                    "name": "",
                    "type": "string"
                }
            ],
            "name": "doesArtistExist",
            "outputs": [
                {
                    "internalType": "bool",
                    "name": "",
                    "type": "bool"
                }
            ],
            "stateMutability": "view",
            "type": "function"
        },
        {
            "inputs": [
                {
                    "internalType": "address",
                    "name": "_artist",
                    "type": "address"
                }
            ],
            "name": "findArtistbyAddress",
            "outputs": [
                {
                    "internalType": "string",
                    "name": "",
                    "type": "string"
                }
            ],
            "stateMutability": "view",
            "type": "function"
        },
        {
            "inputs": [
                {
                    "internalType": "string",
                    "name": "_name",
                    "type": "string"
                }
            ],
            "name": "findArtistbyName",
            "outputs": [
                {
                    "internalType": "address",
                    "name": "",
                    "type": "address"
                }
            ],
            "stateMutability": "view",
            "type": "function"
        }
    ],
    "bytecode": "0x608060405234801561001057600080fd5b50612b41806100206000396000f3fe60806040523480156200001157600080fd5b50600436106200006a5760003560e01c80631cd8fb52146200006f5780637cb412f914620000a5578063b43afd1814620000db578063beaa30851462000111578063c22698cc1462000147578063e0896903146200017d575b600080fd5b6200008d6004803603810190620000879190620007c2565b6200019d565b6040516200009c919062000830565b60405180910390f35b620000c36004803603810190620000bd9190620008b2565b620001d3565b604051620000d2919062000977565b60405180910390f35b620000f96004803603810190620000f39190620007c2565b620002ac565b604051620001089190620009ac565b60405180910390f35b6200012f6004803603810190620001299190620008b2565b620002f5565b6040516200013e919062000977565b60405180910390f35b6200016560048036038101906200015f9190620007c2565b6200039d565b604051620001749190620009ac565b60405180910390f35b6200019b6004803603810190620001959190620007c2565b620003e6565b005b6002818051602081018201805184825260208301602085012081835280955050505050506000915054906101000a900460ff1681565b6060600160008373ffffffffffffffffffffffffffffffffffffffff1673ffffffffffffffffffffffffffffffffffffffff16815260200190815260200160002080546200022190620009f8565b80601f01602080910402602001604051908101604052809291908181526020018280546200024f90620009f8565b8015620002a05780601f106200027457610100808354040283529160200191620002a0565b820191906000526020600020905b8154815290600101906020018083116200028257829003601f168201915b50505050509050919050565b6000818051602081018201805184825260208301602085012081835280955050505050506000915054906101000a900473ffffffffffffffffffffffffffffffffffffffff1681565b600160205280600052604060002060009150905080546200031690620009f8565b80601f01602080910402602001604051908101604052809291908181526020018280546200034490620009f8565b8015620003955780601f10620003695761010080835404028352916020019162000395565b820191906000526020600020905b8154815290600101906020018083116200037757829003601f168201915b505050505081565b60008082604051620003b0919062000a70565b908152602001604051809103902060009054906101000a900473ffffffffffffffffffffffffffffffffffffffff169050919050565b60001515600282604051620003fc919062000a70565b908152602001604051809103902060009054906101000a900460ff161515146200045d576040517f08c379a0000000000000000000000000000000000000000000000000000000008152600401620004549062000ad9565b60405180910390fd5b600081336040516200046f906200058e565b6200047c92919062000afb565b604051809103906000f08015801562000499573d6000803e3d6000fd5b50905080600083604051620004af919062000a70565b908152602001604051809103902060006101000a81548173ffffffffffffffffffffffffffffffffffffffff021916908373ffffffffffffffffffffffffffffffffffffffff16021790555081600160008373ffffffffffffffffffffffffffffffffffffffff1673ffffffffffffffffffffffffffffffffffffffff1681526020019081526020016000209080519060200190620005509291906200059c565b50600160028360405162000565919062000a70565b908152602001604051809103902060006101000a81548160ff0219169083151502179055505050565b611fdc8062000b3083390190565b828054620005aa90620009f8565b90600052602060002090601f016020900481019282620005ce57600085556200061a565b82601f10620005e957805160ff19168380011785556200061a565b828001600101855582156200061a579182015b8281111562000619578251825591602001919060010190620005fc565b5b5090506200062991906200062d565b5090565b5b80821115620006485760008160009055506001016200062e565b5090565b6000604051905090565b600080fd5b600080fd5b600080fd5b600080fd5b6000601f19601f8301169050919050565b7f4e487b7100000000000000000000000000000000000000000000000000000000600052604160045260246000fd5b620006b5826200066a565b810181811067ffffffffffffffff82111715620006d757620006d66200067b565b5b80604052505050565b6000620006ec6200064c565b9050620006fa8282620006aa565b919050565b600067ffffffffffffffff8211156200071d576200071c6200067b565b5b62000728826200066a565b9050602081019050919050565b82818337600083830152505050565b60006200075b6200075584620006ff565b620006e0565b9050828152602081018484840111156200077a576200077962000665565b5b6200078784828562000735565b509392505050565b600082601f830112620007a757620007a662000660565b5b8135620007b984826020860162000744565b91505092915050565b600060208284031215620007db57620007da62000656565b5b600082013567ffffffffffffffff811115620007fc57620007fb6200065b565b5b6200080a848285016200078f565b91505092915050565b60008115159050919050565b6200082a8162000813565b82525050565b60006020820190506200084760008301846200081f565b92915050565b600073ffffffffffffffffffffffffffffffffffffffff82169050919050565b60006200087a826200084d565b9050919050565b6200088c816200086d565b81146200089857600080fd5b50565b600081359050620008ac8162000881565b92915050565b600060208284031215620008cb57620008ca62000656565b5b6000620008db848285016200089b565b91505092915050565b600081519050919050565b600082825260208201905092915050565b60005b838110156200092057808201518184015260208101905062000903565b8381111562000930576000848401525b50505050565b60006200094382620008e4565b6200094f8185620008ef565b93506200096181856020860162000900565b6200096c816200066a565b840191505092915050565b6000602082019050818103600083015262000993818462000936565b905092915050565b620009a6816200086d565b82525050565b6000602082019050620009c360008301846200099b565b92915050565b7f4e487b7100000000000000000000000000000000000000000000000000000000600052602260045260246000fd5b6000600282049050600182168062000a1157607f821691505b6020821081141562000a285762000a27620009c9565b5b50919050565b600081905092915050565b600062000a4682620008e4565b62000a52818562000a2e565b935062000a6481856020860162000900565b80840191505092915050565b600062000a7e828462000a39565b915081905092915050565b7f41727469737420616c7265616479204578697374730000000000000000000000600082015250565b600062000ac1601583620008ef565b915062000ace8262000a89565b602082019050919050565b6000602082019050818103600083015262000af48162000ab2565b9050919050565b6000604082019050818103600083015262000b17818562000936565b905062000b2860208301846200099b565b939250505056fe60806040523480156200001157600080fd5b5060405162001fdc38038062001fdc83398181016040528101906200003791906200038c565b81600090805190602001906200004f929190620000da565b5030600160006101000a81548173ffffffffffffffffffffffffffffffffffffffff021916908373ffffffffffffffffffffffffffffffffffffffff16021790555080600260006101000a81548173ffffffffffffffffffffffffffffffffffffffff021916908373ffffffffffffffffffffffffffffffffffffffff160217905550505062000457565b828054620000e89062000421565b90600052602060002090601f0160209004810192826200010c576000855562000158565b82601f106200012757805160ff191683800117855562000158565b8280016001018555821562000158579182015b82811115620001575782518255916020019190600101906200013a565b5b5090506200016791906200016b565b5090565b5b80821115620001865760008160009055506001016200016c565b5090565b6000604051905090565b600080fd5b600080fd5b600080fd5b600080fd5b6000601f19601f8301169050919050565b7f4e487b7100000000000000000000000000000000000000000000000000000000600052604160045260246000fd5b620001f382620001a8565b810181811067ffffffffffffffff82111715620002155762000214620001b9565b5b80604052505050565b60006200022a6200018a565b9050620002388282620001e8565b919050565b600067ffffffffffffffff8211156200025b576200025a620001b9565b5b6200026682620001a8565b9050602081019050919050565b60005b838110156200029357808201518184015260208101905062000276565b83811115620002a3576000848401525b50505050565b6000620002c0620002ba846200023d565b6200021e565b905082815260208101848484011115620002df57620002de620001a3565b5b620002ec84828562000273565b509392505050565b600082601f8301126200030c576200030b6200019e565b5b81516200031e848260208601620002a9565b91505092915050565b600073ffffffffffffffffffffffffffffffffffffffff82169050919050565b6000620003548262000327565b9050919050565b620003668162000347565b81146200037257600080fd5b50565b60008151905062000386816200035b565b92915050565b60008060408385031215620003a657620003a562000194565b5b600083015167ffffffffffffffff811115620003c757620003c662000199565b5b620003d585828601620002f4565b9250506020620003e88582860162000375565b9150509250929050565b7f4e487b7100000000000000000000000000000000000000000000000000000000600052602260045260246000fd5b600060028204905060018216806200043a57607f821691505b60208210811415620004515762000450620003f2565b5b50919050565b611b7580620004676000396000f3fe6080604052600436106200008b5760003560e01c8063a925af7f1162000055578063a925af7f146200014a578063b69ef8a8146200018e578063d0e30db014620001be578063d7eb3f3a14620001ca576200009d565b80632cc8efc114620000a25780633ccfd60b14620000d05780635b2f515b14620000ea5780638da5cb5b146200011a576200009d565b366200009d576200009b620001fa565b005b600080fd5b348015620000af57600080fd5b50620000ce6004803603810190620000c8919062000706565b620001fc565b005b348015620000dd57600080fd5b50620000e8620002f1565b005b348015620000f757600080fd5b5062000102620003b8565b6040516200011191906200082a565b60405180910390f35b3480156200012757600080fd5b50620001326200044e565b6040516200014191906200085f565b60405180910390f35b3480156200015757600080fd5b506200017660048036038101906200017091906200087c565b62000474565b60405162000185919062000919565b60405180910390f35b3480156200019b57600080fd5b50620001a6620004b4565b604051620001b5919062000947565b60405180910390f35b620001c8620001fa565b005b348015620001d757600080fd5b50620001e2620004bc565b604051620001f1919062000989565b60405180910390f35b565b6000600260009054906101000a900473ffffffffffffffffffffffffffffffffffffffff16600160009054906101000a900473ffffffffffffffffffffffffffffffffffffffff16868686866040516200025690620004e2565b6200026796959493929190620009a6565b604051809103906000f08015801562000284573d6000803e3d6000fd5b5090506003819080600181540180825580915050600190039060005260206000200160009091909190916101000a81548173ffffffffffffffffffffffffffffffffffffffff021916908373ffffffffffffffffffffffffffffffffffffffff1602179055505050505050565b600260009054906101000a900473ffffffffffffffffffffffffffffffffffffffff1673ffffffffffffffffffffffffffffffffffffffff163373ffffffffffffffffffffffffffffffffffffffff16146200034c57600080fd5b600260009054906101000a900473ffffffffffffffffffffffffffffffffffffffff1673ffffffffffffffffffffffffffffffffffffffff166108fc479081150290604051600060405180830381858888f19350505050158015620003b5573d6000803e3d6000fd5b50565b60008054620003c79062000a49565b80601f0160208091040260200160405190810160405280929190818152602001828054620003f59062000a49565b8015620004465780601f106200041a5761010080835404028352916020019162000446565b820191906000526020600020905b8154815290600101906020018083116200042857829003601f168201915b505050505081565b600260009054906101000a900473ffffffffffffffffffffffffffffffffffffffff1681565b600381815481106200048557600080fd5b906000526020600020016000915054906101000a900473ffffffffffffffffffffffffffffffffffffffff1681565b600047905090565b600160009054906101000a900473ffffffffffffffffffffffffffffffffffffffff1681565b6110c08062000a8083390190565b6000604051905090565b600080fd5b600080fd5b600073ffffffffffffffffffffffffffffffffffffffff82169050919050565b6000620005318262000504565b9050919050565b620005438162000524565b81146200054f57600080fd5b50565b600081359050620005638162000538565b92915050565b600080fd5b600080fd5b6000601f19601f8301169050919050565b7f4e487b7100000000000000000000000000000000000000000000000000000000600052604160045260246000fd5b620005be8262000573565b810181811067ffffffffffffffff82111715620005e057620005df62000584565b5b80604052505050565b6000620005f5620004f0565b9050620006038282620005b3565b919050565b600067ffffffffffffffff82111562000626576200062562000584565b5b620006318262000573565b9050602081019050919050565b82818337600083830152505050565b6000620006646200065e8462000608565b620005e9565b9050828152602081018484840111156200068357620006826200056e565b5b620006908482856200063e565b509392505050565b600082601f830112620006b057620006af62000569565b5b8135620006c28482602086016200064d565b91505092915050565b6000819050919050565b620006e081620006cb565b8114620006ec57600080fd5b50565b6000813590506200070081620006d5565b92915050565b60008060008060808587031215620007235762000722620004fa565b5b6000620007338782880162000552565b945050602085013567ffffffffffffffff811115620007575762000756620004ff565b5b620007658782880162000698565b93505060406200077887828801620006ef565b92505060606200078b87828801620006ef565b91505092959194509250565b600081519050919050565b600082825260208201905092915050565b60005b83811015620007d3578082015181840152602081019050620007b6565b83811115620007e3576000848401525b50505050565b6000620007f68262000797565b620008028185620007a2565b935062000814818560208601620007b3565b6200081f8162000573565b840191505092915050565b60006020820190508181036000830152620008468184620007e9565b905092915050565b620008598162000524565b82525050565b60006020820190506200087660008301846200084e565b92915050565b600060208284031215620008955762000894620004fa565b5b6000620008a584828501620006ef565b91505092915050565b6000819050919050565b6000620008d9620008d3620008cd8462000504565b620008ae565b62000504565b9050919050565b6000620008ed82620008b8565b9050919050565b60006200090182620008e0565b9050919050565b6200091381620008f4565b82525050565b600060208201905062000930600083018462000908565b92915050565b6200094181620006cb565b82525050565b60006020820190506200095e600083018462000936565b92915050565b6000620009718262000504565b9050919050565b620009838162000964565b82525050565b6000602082019050620009a0600083018462000978565b92915050565b600060c082019050620009bd60008301896200084e565b620009cc602083018862000978565b620009db60408301876200084e565b8181036060830152620009ef8186620007e9565b905062000a00608083018562000936565b62000a0f60a083018462000936565b979650505050505050565b7f4e487b7100000000000000000000000000000000000000000000000000000000600052602260045260246000fd5b6000600282049050600182168062000a6257607f821691505b6020821081141562000a795762000a7862000a1a565b5b5091905056fe60806040526000600a553480156200001657600080fd5b50604051620010c0380380620010c083398181016040528101906200003c919062000472565b600760019054906101000a90505083600960006101000a81548173ffffffffffffffffffffffffffffffffffffffff021916908373ffffffffffffffffffffffffffffffffffffffff16021790555084600860006101000a81548173ffffffffffffffffffffffffffffffffffffffff021916908373ffffffffffffffffffffffffffffffffffffffff16021790555081600081905550806001819055508260039080519060200190620000f292919062000140565b5085600760016101000a81548173ffffffffffffffffffffffffffffffffffffffff021916908373ffffffffffffffffffffffffffffffffffffffff16021790555050505050505062000592565b8280546200014e906200055c565b90600052602060002090601f016020900481019282620001725760008555620001be565b82601f106200018d57805160ff1916838001178555620001be565b82800160010185558215620001be579182015b82811115620001bd578251825591602001919060010190620001a0565b5b509050620001cd9190620001d1565b5090565b5b80821115620001ec576000816000905550600101620001d2565b5090565b6000604051905090565b600080fd5b600080fd5b600073ffffffffffffffffffffffffffffffffffffffff82169050919050565b6000620002318262000204565b9050919050565b620002438162000224565b81146200024f57600080fd5b50565b600081519050620002638162000238565b92915050565b6000620002768262000204565b9050919050565b620002888162000269565b81146200029457600080fd5b50565b600081519050620002a8816200027d565b92915050565b600080fd5b600080fd5b6000601f19601f8301169050919050565b7f4e487b7100000000000000000000000000000000000000000000000000000000600052604160045260246000fd5b6200030382620002b8565b810181811067ffffffffffffffff82111715620003255762000324620002c9565b5b80604052505050565b60006200033a620001f0565b9050620003488282620002f8565b919050565b600067ffffffffffffffff8211156200036b576200036a620002c9565b5b6200037682620002b8565b9050602081019050919050565b60005b83811015620003a357808201518184015260208101905062000386565b83811115620003b3576000848401525b50505050565b6000620003d0620003ca846200034d565b6200032e565b905082815260208101848484011115620003ef57620003ee620002b3565b5b620003fc84828562000383565b509392505050565b600082601f8301126200041c576200041b620002ae565b5b81516200042e848260208601620003b9565b91505092915050565b6000819050919050565b6200044c8162000437565b81146200045857600080fd5b50565b6000815190506200046c8162000441565b92915050565b60008060008060008060c08789031215620004925762000491620001fa565b5b6000620004a289828a0162000252565b9650506020620004b589828a0162000297565b9550506040620004c889828a0162000252565b945050606087015167ffffffffffffffff811115620004ec57620004eb620001ff565b5b620004fa89828a0162000404565b93505060806200050d89828a016200045b565b92505060a06200052089828a016200045b565b9150509295509295509295565b7f4e487b7100000000000000000000000000000000000000000000000000000000600052602260045260246000fd5b600060028204905060018216806200057557607f821691505b602082108114156200058c576200058b6200052d565b5b50919050565b610b1e80620005a26000396000f3fe6080604052600436106100e85760003560e01c8063a35c2bff1161008a578063cf41d6f811610059578063cf41d6f81461027d578063ef3ab33014610287578063fab6b7b8146102b2578063fcd3f30f146102dd576100e8565b8063a35c2bff146101e5578063c71daccb146101fc578063cc5c72a714610227578063cea7fbf014610252576100e8565b80635bd20757116100c65780635bd207571461016e5780637db3a94614610199578063964efe1b146101b0578063a270a737146101ba576100e8565b80630c3f6acf146100ed578063197b406e1461011857806343bc161214610143575b600080fd5b3480156100f957600080fd5b50610102610308565b60405161010f91906108e6565b60405180910390f35b34801561012457600080fd5b5061012d61031b565b60405161013a919061091c565b60405180910390f35b34801561014f57600080fd5b5061015861032e565b6040516101659190610978565b60405180910390f35b34801561017a57600080fd5b50610183610354565b604051610190919061091c565b60405180910390f35b3480156101a557600080fd5b506101ae610383565b005b6101b8610442565b005b3480156101c657600080fd5b506101cf6105a1565b6040516101dc91906109b4565b60405180910390f35b3480156101f157600080fd5b506101fa6105c7565b005b34801561020857600080fd5b506102116106bc565b60405161021e91906109e8565b60405180910390f35b34801561023357600080fd5b5061023c6106c4565b60405161024991906109e8565b60405180910390f35b34801561025e57600080fd5b506102676106ca565b604051610274919061091c565b60405180910390f35b610285610702565b005b34801561029357600080fd5b5061029c610836565b6040516102a9919061091c565b60405180910390f35b3480156102be57600080fd5b506102c7610849565b6040516102d4919061091c565b60405180910390f35b3480156102e957600080fd5b506102f261085c565b6040516102ff919061091c565b60405180910390f35b600560009054906101000a900460ff1681565b600760159054906101000a900460ff1681565b600860009054906101000a900473ffffffffffffffffffffffffffffffffffffffff1681565b600060011515600560019054906101000a900460ff161515141561037b5760019050610380565b600090505b90565b600760019054906101000a900473ffffffffffffffffffffffffffffffffffffffff1673ffffffffffffffffffffffffffffffffffffffff163373ffffffffffffffffffffffffffffffffffffffff16146103dd57600080fd5b6001600260006101000a81548160ff02191690831515021790555042600681905550600260009054906101000a900460ff1615610440576001600560006101000a81548160ff0219169083600381111561043a5761043961086f565b5b02179055505b565b600960009054906101000a900473ffffffffffffffffffffffffffffffffffffffff1673ffffffffffffffffffffffffffffffffffffffff163373ffffffffffffffffffffffffffffffffffffffff161461049c57600080fd5b620151806006546104ad9190610a32565b42106104b857600080fd5b600960009054906101000a900473ffffffffffffffffffffffffffffffffffffffff1673ffffffffffffffffffffffffffffffffffffffff163373ffffffffffffffffffffffffffffffffffffffff161461051257600080fd5b60026000546105219190610ab7565b341461052c57600080fd5b60011515600260009054906101000a900460ff1615151461054c57600080fd5b6001600560016101000a81548160ff0219169083151502179055507ffce0a75bed34ac754f7cdc5545121cea846912de0ffd56e3632ca759bcbc098f6001604051610597919061091c565b60405180910390a1565b600960009054906101000a900473ffffffffffffffffffffffffffffffffffffffff1681565b600960009054906101000a900473ffffffffffffffffffffffffffffffffffffffff1673ffffffffffffffffffffffffffffffffffffffff163373ffffffffffffffffffffffffffffffffffffffff161461062157600080fd5b600154421161062f57600080fd5b60011515600560019054906101000a900460ff1615151461064f57600080fd5b600160038111156106635761066261086f565b5b600560009054906101000a900460ff1660038111156106855761068461086f565b5b1461068f57600080fd5b6002600560006101000a81548160ff021916908360038111156106b5576106b461086f565b5b0217905550565b600047905090565b600a5481565b60006001544211156106fa576001600760006101000a81548160ff021916908315150217905550600190506106ff565b600090505b90565b600760019054906101000a900473ffffffffffffffffffffffffffffffffffffffff1673ffffffffffffffffffffffffffffffffffffffff163373ffffffffffffffffffffffffffffffffffffffff161461075c57600080fd5b60011515600560019054906101000a900460ff1615151461077c57600080fd5b60015442101561078b57600080fd5b6002600381111561079f5761079e61086f565b5b600560009054906101000a900460ff1660038111156107c1576107c061086f565b5b146107cb57600080fd5b600860009054906101000a900473ffffffffffffffffffffffffffffffffffffffff1673ffffffffffffffffffffffffffffffffffffffff166108fc479081150290604051600060405180830381858888f19350505050158015610833573d6000803e3d6000fd5b50565b600560019054906101000a900460ff1681565b600760009054906101000a900460ff1681565b600260009054906101000a900460ff1681565b7f4e487b7100000000000000000000000000000000000000000000000000000000600052602160045260246000fd5b600481106108af576108ae61086f565b5b50565b60008190506108c08261089e565b919050565b60006108d0826108b2565b9050919050565b6108e0816108c5565b82525050565b60006020820190506108fb60008301846108d7565b92915050565b60008115159050919050565b61091681610901565b82525050565b6000602082019050610931600083018461090d565b92915050565b600073ffffffffffffffffffffffffffffffffffffffff82169050919050565b600061096282610937565b9050919050565b61097281610957565b82525050565b600060208201905061098d6000830184610969565b92915050565b600061099e82610937565b9050919050565b6109ae81610993565b82525050565b60006020820190506109c960008301846109a5565b92915050565b6000819050919050565b6109e2816109cf565b82525050565b60006020820190506109fd60008301846109d9565b92915050565b7f4e487b7100000000000000000000000000000000000000000000000000000000600052601160045260246000fd5b6000610a3d826109cf565b9150610a48836109cf565b9250827fffffffffffffffffffffffffffffffffffffffffffffffffffffffffffffffff03821115610a7d57610a7c610a03565b5b828201905092915050565b7f4e487b7100000000000000000000000000000000000000000000000000000000600052601260045260246000fd5b6000610ac2826109cf565b9150610acd836109cf565b925082610add57610adc610a88565b5b82820490509291505056fea26469706673582212207276d1ee24c19a77fac6608638d378842d2a9ee31cba594c197254218ef5cb5e64736f6c63430008090033a26469706673582212205636eeffc6795cf54b0c27520e06d9601485b0fb42015c2445ac4b0f5877c74064736f6c63430008090033a2646970667358221220b9eac2be791425393fea5dd7a3f909c939813c468f408f2656709a584323d28764736f6c63430008090033",
    "linkReferences": {},
    "deployedLinkReferences": {}
}